:100000000C945D000C947A000C947A000C947A00A5
:100010000C947A000C947A000C947A000C947D0174
:100020000C947A000C947A000C947A000C947A0068
:100030000C947A000C947A000C947A000C947A0058
:100040000C9433010C947A000C947A000C947A008E
:100050000C947A000C947A000C947A000C947A0038
:100060000C947A000C947A00000000080002010051
:100070000003040700000000000000000200000070
:1000800000250028002B0000000000240027002A83
:100090000004040404040404040202020202020331
:1000A000030303030301020408102040800102043B
:1000B0000810200102040810200011241FBECFEFF9
:1000C000D8E0DEBFCDBF13E0A0E0B1E0E6E0F9E0AC
:1000D00002C005900D92A639B107D9F723E0A6E931
:1000E000B3E001C01D92A03BB207E1F70E94D90125
:1000F0000C9481040C940000E7EAF0E02491E3E919
:10010000F0E08491882399F090E0880F991FFC011A
:10011000E957FF4FA591B491FC01E358FF4F85913A
:1001200094918FB7F894EC91E22BEC938FBF0895E4
:100130003FB7F8948091AC039091AD03A091AE03CA
:10014000B091AF0326B5A89B05C02F3F19F00196CB
:10015000A11DB11D3FBFBA2FA92F982F8827BC0121
:10016000CD01620F711D811D911D42E0660F771F49
:10017000881F991F4A95D1F708959091000189131E
:100180000DC0ECE7F0E0E4919FEF90930001E130C7
:1001900009F431C068F1E23009F433C090E0FC01A9
:1001A000E859FF4F2491FC01EB55FF4F3491FC01BE
:1001B000EF56FF4FE491EE23D1F0222351F023308C
:1001C00009F43AC078F5213009F43CC0223009F432
:1001D0003DC0F0E0EE0FFF1FE358FF4FA591B49133
:1001E0008FB7F894EC9130953E233C938FBF0895E0
:1001F00010926E00D3CF90916F009D7F90936F000F
:10020000CDCF909170009D7F9093700091E090937E
:10021000B0009091B100987F94609093B1001092DB
:10022000B300BCCF2730A9F02830C9F0243089F6BC
:10023000809180008F7D03C0809180008F778093B4
:100240008000C7CF84B58F7784BDC3CF84B58F7D41
:10025000FBCF8091B0008F778093B000BACF8091B0
:10026000B0008F7DF9CF1F920F920FB60F9211241D
:100270002F933F938F939F93AF93BF938091A80346
:100280009091A903A091AA03B091AB033091A70369
:1002900023E0230F2D3758F50196A11DB11D2093A2
:1002A000A7038093A8039093A903A093AA03B093F4
:1002B000AB038091AC039091AD03A091AE03B091DC
:1002C000AF030196A11DB11D8093AC039093AD03C4
:1002D000A093AE03B093AF03BF91AF919F918F9165
:1002E0003F912F910F900FBE0F901F90189526E809
:1002F000230F0296A11DB11DD2CF1F920F920FB6F0
:100300000F9211242F933F934F935F936F937F939B
:100310008F939F93AF93BF93EF93FF9380919B0332
:1003200090919C03A0919D03B0919E03892B8A2BF1
:100330008B2BD1F190919603E0919703F091980364
:1003400080818927808380919B0390919C03A09159
:100350009D03B0919E03181619061A061B069CF4FD
:1003600080919B0390919C03A0919D03B0919E036B
:100370000197A109B10980939B0390939C03A093DB
:100380009D03B0939E03FF91EF91BF91AF919F9119
:100390008F917F916F915F914F913F912F910F902E
:1003A0000FBE0F901F901895809100010E94BD0014
:1003B000EACF789484B5826084BD84B5816084BDC1
:1003C00085B5826085BD85B5816085BD80916E00F3
:1003D000816080936E001092810080918100826024
:1003E0008093810080918100816080938100809161
:1003F00080008160809380008091B1008460809350
:10040000B1008091B00081608093B00080917A004B
:10041000846080937A0080917A00826080937A0071
:1004200080917A00816080937A0080917A00806860
:1004300080937A001092C1000E947C0001E011E0DC
:1004400058E4852E58EE952EAA24A394B12C67EA81
:10045000262E60E0362ED801CD90DC9080910001F0
:10046000823071F4ECE7F0E0C491C7FDE1C10E9475
:100470007C00CC2309F436C0C23009F0A8C032C0D9
:100480008F3F09F0D5C182E080930001ECE7F0E0F6
:10049000C491CF3F09F4CCC1C13009F479C040F018
:1004A000C23009F4D2C0C7FDC3C10E947C00E4CFB2
:1004B00014BC15BC84B5826084BD85B5816085BDE2
:1004C000E3E9F0E08491E82FF0E0EE0FFF1FE3583E
:1004D000FF4F85919491F101849180939A030E943A
:1004E0007C00C0E0F12CE12C60E072E18AE790E052
:1004F000A70196010E94400429013A01DA01C901CD
:100500000197A109B1098F3F9105A105B10509F036
:100510000CF4FCC060E472E48FE090E0A701960167
:100520000E9440042150310941095109C23009F0AB
:10053000B0C082E02F3F31054105510509F00CF4B0
:1005400068C160E970ED83E090E0A70196010E9428
:100550004004215031094109510983E02F3F310501
:100560004105510509F00CF454C1C501B401A701BE
:1005700096010E94400421503109410951092F3F41
:1005800031054105510511F00CF09FC084E041C1D7
:100590001092800010928100809181008860809389
:1005A000810080918100816080938100E3E9F0E027
:1005B0008491E82FF0E0EE0FFF1FE358FF4F859185
:1005C0009491F1018491809399030E947C00F12C15
:1005D000E12C60E072E18AE790E0A70196010E94B9
:1005E0004004215031094109510991E0211531059B
:1005F000F1E04F0751055CF0C501B401A701960178
:100600000E944004215031094109510993E0C13051
:1006100009F005C180918100887F892B809381003A
:1006200030938900209388008FEF9FEFDC01809347
:100630009F039093A003A093A103B093A203809182
:100640006F00826080936F00F3C01092B000109230
:10065000B1008091B00082608093B0008091B100C1
:1006600081608093B100E3E9F0E08491E82FF0E04D
:10067000EE0FFF1FE358FF4F8591949190939803DD
:1006800080939703F1018491809396030E947C00EC
:1006900029CF2F3F31054105510509F00CF450C019
:1006A000C501B401A70196010E94400421503109FF
:1006B00041095109CC2309F481C02F3F310541057F
:1006C000510511F00CF082C061CF64E274EF80E05C
:1006D00090E0A70196010E94400421503109410990
:1006E000510985E02F3F31054105510509F008F416
:1006F00090C062E17AE780E090E0A70196010E9455
:10070000400421503109410951096EC09C0181E02A
:10071000C1117FC095B5987F892B85BD27BD8FEF0F
:100720009FEFDC018093A3039093A403A093A50300
:10073000B093A60380916E00826080936E0078C0B3
:1007400082E0E6CF2093B3008FEF9FEFDC01809330
:100750009B0390939C03A0939D03B0939E03809171
:10076000700082608093700063C00A5F1F4F23E0B7
:100770000539120709F06FCE82E00E94BD0000E04B
:1007800010E001151105E9F30E940000FACF84E0A2
:100790002F3F31054105510509F008F4BBCF9AE020
:1007A00075946794579447949A95D1F7A301920151
:1007B000215031094109510985E0ACCF83E02F3F39
:1007C00031054105510509F00CF4A4CF62E17AE747
:1007D00080E090E0A70196010E9440042150310979
:1007E00041095109CC2399F286E02F3F310541059B
:1007F000510579F070F08AE07594679457944794A6
:100800008A95D1F7A301920121503109410951097B
:1008100087E09091B100987F892B8093B100C1301F
:1008200009F4FECEC23009F48DCFCC2309F476CF83
:10083000D8011296CD90DD90ED90FC9015970E9416
:1008400098002B013C01C114D104E104F10409F426
:100850008CCF0E9498006419750986099709683E33
:1008600073408105910578F3B1E0CB1AD108E10816
:10087000F108E8EE4E0EE3E05E1E611C711CE3CF52
:10088000052E97FB1EF400940E94570457FD07D0D5
:100890000E945F0407FC03D04EF40C94570450955B
:1008A0004095309521953F4F4F4F5F4F089590955C
:1008B0008095709561957F4F8F4F9F4F0895A1E26E
:1008C0001A2EAA1BBB1BFD010DC0AA1FBB1FEE1FCA
:1008D000FF1FA217B307E407F50720F0A21BB30B15
:1008E000E40BF50B661F771F881F991F1A9469F791
:1008F00060957095809590959B01AC01BD01CF01ED
:060900000895F894FFCFFA
:10090600FF2700960000004E00320000004E003225
:100916000000004500320000006E02C8000000BA68
:1009260002C8000000E402C80000003F03C800003F
:1009360000A40390010000DD04C80000005504C8AF
:10094600000000A403900100006E0290010000A4C4
:1009560003C80000003F03C8000000E402C800000E
:1009660000BA02C80000006E02C8000000BA02C841
:10097600000000E402C80000003F03C8000000A415
:1009860003900100003F03C8000000E402C8000015
:1009960000BA02C80000006E02C8000000BA02C811
:1009A600000000E402C8000000BA02C80000006EA1
:1009B60002C80000004B02C8000000BA02C80000CE
:1009C600006E02C8000000BA02C8000000E402C8B7
:1009D6000000003F03C8000000A40390010000DDF2
:1009E60004C80000005504C8000000A403900100DC
:1009F600006E0290010000A403C80000003F03C877
:100A0600000000E402C8000000BA02C80000006E40
:100A160002C8000000BA02C8000000E402C80000D4
:100A2600003F03C8000000A403900100003F03C874
:100A3600000000E402C8000000BA0290010000E4D1
:100A460002900100003F0390010000A40390010002
:100A5600005504C8000000DD04C8000000A403C857
:100A66000000003F03C8000000A403900100003FFF
:100A760003C8000000A403C80000005504C8000015
:100A860000DD04C8000000A403C80000003F03C83E
:100A9600000000A403900100003F03C8000000A46A
:100AA60003C80000003F03C8000000E402C80000BD
:100AB60000BA02C80000002A02C80000006E0290B8
:100AC6000100002A02C80000006E02C8000000BA39
:100AD60002C8000000E402C80000003F03C800008E
:100AE60000A403C80000006E0290010000A403C821
:100AF6000000005504C80000005504C8000000DDD1
:100B060004C8000000A403C80000003F03C800009A
:100B160000A403900100003F03C8000000A403C81E
:100B26000000005504C8000000DD04C8000000A451
:100B360003C80000003F03C8000000A403900100A2
:100B460000DD04C80000007505C8000000C805C81F
:100B56000000007505C8000000DD04C8000000554F
:100B660004C8000000A403900100003F03C8000071
:100B760000A403C80000003F03C8000000E402C848
:100B8600000000BA02C80000002A02C80000006E79
:060B9600029001000000C6
:00000001FF
