:020000040000FA
:100000000C945D000C947A000C947A000C947A00A5
:100010000C947A000C947A000C947A000C947D0174
:100020000C947A000C947A000C947A000C947A0068
:100030000C947A000C947A000C947A000C947A0058
:100040000C9433010C947A000C947A000C947A008E
:100050000C947A000C947A000C947A000C947A0038
:100060000C947A000C947A00000000080002010051
:100070000003040700000000000000000200000070
:1000800000250028002B0000000000240027002A83
:100090000004040404040404040202020202020331
:1000A000030303030301020408102040800102043B
:1000B0000810200102040810200011241FBECFEFF9
:1000C000D8E0DEBFCDBF13E0A0E0B1E0E6E0F9E0AC
:1000D00002C005900D92A639B107D9F723E0A6E931
:1000E000B3E001C01D92A03BB207E1F70E94D90125
:1000F0000C9481040C940000E7EAF0E02491E3E919
:10010000F0E08491882399F090E0880F991FFC011A
:10011000E957FF4FA591B491FC01E358FF4F85913A
:1001200094918FB7F894EC91E22BEC938FBF0895E4
:100130003FB7F8948091AC039091AD03A091AE03CA
:10014000B091AF0326B5A89B05C02F3F19F00196CB
:10015000A11DB11D3FBFBA2FA92F982F8827BC0121
:10016000CD01620F711D811D911D42E0660F771F49
:10017000881F991F4A95D1F708959091000189131E
:100180000DC0ECE7F0E0E4919FEF90930001E130C7
:1001900009F431C068F1E23009F433C090E0FC01A9
:1001A000E859FF4F2491FC01EB55FF4F3491FC01BE
:1001B000EF56FF4FE491EE23D1F0222351F023308C
:1001C00009F43AC078F5213009F43CC0223009F432
:1001D0003DC0F0E0EE0FFF1FE358FF4FA591B49133
:1001E0008FB7F894EC9130953E233C938FBF0895E0
:1001F00010926E00D3CF90916F009D7F90936F000F
:10020000CDCF909170009D7F9093700091E090937E
:10021000B0009091B100987F94609093B1001092DB
:10022000B300BCCF2730A9F02830C9F0243089F6BC
:10023000809180008F7D03C0809180008F778093B4
:100240008000C7CF84B58F7784BDC3CF84B58F7D41
:10025000FBCF8091B0008F778093B000BACF8091B0
:10026000B0008F7DF9CF1F920F920FB60F9211241D
:100270002F933F938F939F93AF93BF938091A80346
:100280009091A903A091AA03B091AB033091A70369
:1002900023E0230F2D3758F50196A11DB11D2093A2
:1002A000A7038093A8039093A903A093AA03B093F4
:1002B000AB038091AC039091AD03A091AE03B091DC
:1002C000AF030196A11DB11D8093AC039093AD03C4
:1002D000A093AE03B093AF03BF91AF919F918F9165
:1002E0003F912F910F900FBE0F901F90189526E809
:1002F000230F0296A11DB11DD2CF1F920F920FB6F0
:100300000F9211242F933F934F935F936F937F939B
:100310008F939F93AF93BF93EF93FF9380919B0332
:1003200090919C03A0919D03B0919E03892B8A2BF1
:100330008B2BD1F190919603E0919703F091980364
:1003400080818927808380919B0390919C03A09159
:100350009D03B0919E03181619061A061B069CF4FD
:1003600080919B0390919C03A0919D03B0919E036B
:100370000197A109B10980939B0390939C03A093DB
:100380009D03B0939E03FF91EF91BF91AF919F9119
:100390008F917F916F915F914F913F912F910F902E
:1003A0000FBE0F901F901895809100010E94BD0014
:1003B000EACF789484B5826084BD84B5816084BDC1
:1003C00085B5826085BD85B5816085BD80916E00F3
:1003D000816080936E001092810080918100826024
:1003E0008093810080918100816080938100809161
:1003F00080008160809380008091B1008460809350
:10040000B1008091B00081608093B00080917A004B
:10041000846080937A0080917A00826080937A0071
:1004200080917A00816080937A0080917A00806860
:1004300080937A001092C1000E947C0001E011E0DC
:1004400058E4852E58EE952EAA24A394B12C67EA81
:10045000262E60E0362ED801CD90DC9080910001F0
:10046000823071F4ECE7F0E0C491C7FDE1C10E9475
:100470007C00CC2309F436C0C23009F0A8C032C0D9
:100480008F3F09F0D5C182E080930001ECE7F0E0F6
:10049000C491CF3F09F4CCC1C13009F479C040F018
:1004A000C23009F4D2C0C7FDC3C10E947C00E4CFB2
:1004B00014BC15BC84B5826084BD85B5816085BDE2
:1004C000E3E9F0E08491E82FF0E0EE0FFF1FE3583E
:1004D000FF4F85919491F101849180939A030E943A
:1004E0007C00C0E0F12CE12C60E072E18AE790E052
:1004F000A70196010E94400429013A01DA01C901CD
:100500000197A109B1098F3F9105A105B10509F036
:100510000CF4FCC060E472E48FE090E0A701960167
:100520000E9440042150310941095109C23009F0AB
:10053000B0C082E02F3F31054105510509F00CF4B0
:1005400068C160E970ED83E090E0A70196010E9428
:100550004004215031094109510983E02F3F310501
:100560004105510509F00CF454C1C501B401A701BE
:1005700096010E94400421503109410951092F3F41
:1005800031054105510511F00CF09FC084E041C1D7
:100590001092800010928100809181008860809389
:1005A000810080918100816080938100E3E9F0E027
:1005B0008491E82FF0E0EE0FFF1FE358FF4F859185
:1005C0009491F1018491809399030E947C00F12C15
:1005D000E12C60E072E18AE790E0A70196010E94B9
:1005E0004004215031094109510991E0211531059B
:1005F000F1E04F0751055CF0C501B401A701960178
:100600000E944004215031094109510993E0C13051
:1006100009F005C180918100887F892B809381003A
:1006200030938900209388008FEF9FEFDC01809347
:100630009F039093A003A093A103B093A203809182
:100640006F00826080936F00F3C01092B000109230
:10065000B1008091B00082608093B0008091B100C1
:1006600081608093B100E3E9F0E08491E82FF0E04D
:10067000EE0FFF1FE358FF4F8591949190939803DD
:1006800080939703F1018491809396030E947C00EC
:1006900029CF2F3F31054105510509F00CF450C019
:1006A000C501B401A70196010E94400421503109FF
:1006B00041095109CC2309F481C02F3F310541057F
:1006C000510511F00CF082C061CF64E274EF80E05C
:1006D00090E0A70196010E94400421503109410990
:1006E000510985E02F3F31054105510509F008F416
:1006F00090C062E17AE780E090E0A70196010E9455
:10070000400421503109410951096EC09C0181E02A
:10071000C1117FC095B5987F892B85BD27BD8FEF0F
:100720009FEFDC018093A3039093A403A093A50300
:10073000B093A60380916E00826080936E0078C0B3
:1007400082E0E6CF2093B3008FEF9FEFDC01809330
:100750009B0390939C03A0939D03B0939E03809171
:10076000700082608093700063C00A5F1F4F23E0B7
:100770000539120709F06FCE82E00E94BD0000E04B
:1007800010E001151105E9F30E940000FACF84E0A2
:100790002F3F31054105510509F008F4BBCF9AE020
:1007A00075946794579447949A95D1F7A301920151
:1007B000215031094109510985E0ACCF83E02F3F39
:1007C00031054105510509F00CF4A4CF62E17AE747
:1007D00080E090E0A70196010E9440042150310979
:1007E00041095109CC2399F286E02F3F310541059B
:1007F000510579F070F08AE07594679457944794A6
:100800008A95D1F7A301920121503109410951097B
:1008100087E09091B100987F892B8093B100C1301F
:1008200009F4FECEC23009F48DCFCC2309F476CF83
:10083000D8011296CD90DD90ED90FC9015970E9416
:1008400098002B013C01C114D104E104F10409F426
:100850008CCF0E9498006419750986099709683E33
:1008600073408105910578F3B1E0CB1AD108E10816
:10087000F108E8EE4E0EE3E05E1E611C711CE3CF52
:10088000052E97FB1EF400940E94570457FD07D0D5
:100890000E945F0407FC03D04EF40C94570450955B
:1008A0004095309521953F4F4F4F5F4F089590955C
:1008B0008095709561957F4F8F4F9F4F0895A1E26E
:1008C0001A2EAA1BBB1BFD010DC0AA1FBB1FEE1FCA
:1008D000FF1FA217B307E407F50720F0A21BB30B15
:1008E000E40BF50B661F771F881F991F1A9469F791
:1008F00060957095809590959B01AC01BD01CF01ED
:100900000895F894FFCFFF2700960000004E0032B4
:100910000000004E00320000004500320000006E72
:1009200002C8000000BA02C8000000E402C80000CB
:10093000003F03C8000000A40390010000DD04C8CC
:100940000000005504C8000000A403900100006EE0
:100950000290010000A403C80000003F03C800008B
:1009600000E402C8000000BA02C80000006E02C81D
:10097000000000BA02C8000000E402C80000003F06
:1009800003C8000000A403900100003F03C800005A
:1009900000E402C8000000BA02C80000006E02C8ED
:1009A000000000BA02C8000000E402C8000000BA5B
:1009B00002C80000006E02C80000004B02C8000020
:1009C00000BA02C80000006E02C8000000BA02C8E7
:1009D000000000E402C80000003F03C8000000A4BB
:1009E0000390010000DD04C80000005504C80000A9
:1009F00000A403900100006E0290010000A403C84F
:100A00000000003F03C8000000E402C8000000BA74
:100A100002C80000006E02C8000000BA02C8000050
:100A200000E402C80000003F03C8000000A40390D7
:100A30000100003F03C8000000E402C8000000BA43
:100A40000290010000E402900100003F03900100C9
:100A500000A403900100005504C8000000DD04C894
:100A6000000000A403C80000003F03C8000000A469
:100A700003900100003F03C8000000A403C8000069
:100A8000005504C8000000DD04C8000000A403C82D
:100A90000000003F03C8000000A403900100003FD5
:100AA00003C8000000A403C80000003F03C8000002
:100AB00000E402C8000000BA02C80000002A02C810
:100AC0000000006E02900100002A02C80000006EC3
:100AD00002C8000000BA02C8000000E402C800001A
:100AE000003F03C8000000A403C80000006E02908D
:100AF000010000A403C80000005504C80000005510
:100B000004C8000000DD04C8000000A403C8000001
:100B1000003F03C8000000A403900100003F03C889
:100B2000000000A403C80000005504C8000000DD58
:100B300004C8000000A403C80000003F03C8000070
:100B400000A40390010000DD04C80000007505C882
:100B5000000000C805C80000007505C8000000DDE1
:100B600004C80000005504C8000000A40390010060
:100B7000003F03C8000000A403C80000003F03C8F2
:100B8000000000E402C8000000BA02C80000002A09
:0C0B900002C80000006E0290010000008E
:107800000C94343C0C94513C0C94513C0C94513CE1
:107810000C94513C0C94513C0C94513C0C94513CB4
:107820000C94513C0C94513C0C94513C0C94513CA4
:107830000C94513C0C94513C0C94513C0C94513C94
:107840000C94513C0C94513C0C94513C0C94513C84
:107850000C94513C0C94513C0C94513C0C94513C74
:107860000C94513C0C94513C11241FBECFEFD8E036
:10787000DEBFCDBF11E0A0E0B1E0ECE9FFE702C060
:1078800005900D92A230B107D9F712E0A2E0B1E065
:1078900001C01D92AD30B107E1F70E942D3D0C945F
:1078A000CC3F0C94003C982F959595959595959582
:1078B000905D8F708A307CF0282F295A8091C0000B
:1078C00085FFFCCF9093C6008091C00085FFFCCF60
:1078D0002093C6000895282F205DF0CF982F809127
:1078E000C00085FFFCCF9093C6000895EF92FF92F1
:1078F0000F931F93EE24FF2487018091C00087FD22
:1079000017C00894E11CF11C011D111D81E4E8164B
:1079100082E4F8068FE0080780E0180770F3E09132
:107920000401F091050109958091C00087FFE9CF1E
:107930008091C6001F910F91FF90EF9008950E94D3
:10794000763C982F8091C00085FFFCCF9093C600B5
:1079500091362CF490330CF09053892F089597555D
:10796000892F08951F930E949F3C182F0E949F3CCF
:107970001295107F810F1F9108951F93182F882350
:1079800021F00E94763C1150E1F71F9108951F935A
:10799000182F0E94763C803249F0809103018F5F5E
:1079A000809303018530C1F01F9108958091C0003C
:1079B00085FFFCCF84E18093C6008091C00085FFE5
:1079C000FCCF1093C6008091C00085FFFCCF80E102
:1079D0008093C6001F910895E0910401F091050184
:1079E00009951F9108950E94763C803241F0809164
:1079F00003018F5F80930301853081F008958091AA
:107A0000C00085FFFCCF84E18093C6008091C00058
:107A100085FFFCCF80E18093C6000895E0910401CA
:107A2000F09105010995089540E951E08823A1F0FE
:107A30002D9A28EE33E0FA013197F1F721503040CA
:107A4000D1F72D9828EE33E0FA013197F1F7215064
:107A50003040D1F7815061F708953F924F925F9285
:107A60006F927F928F929F92AF92BF92CF92DF924E
:107A7000EF92FF920F931F93CF93DF93000080E16B
:107A80008093C4001092C50088E18093C10086E015
:107A90008093C2005098589A259A81E00E94143D24
:107AA00024E1F22E9EE1E92E85E9D82E0FE0C02ECA
:107AB00010E1B12EAA24A394B1E49B2EA6E58A2E50
:107AC000F2E57F2EE0E26E2E79E4572E63E5462E36
:107AD00050E5352E0E94763C8033B1F18133B9F107
:107AE000803409F46FC0813409F476C0823409F41B
:107AF00085C0853409F488C0803531F1823521F1A3
:107B0000813511F1853509F485C0863509F48DC0BC
:107B1000843609F496C0843709F403C1853709F423
:107B200072C1863709F466C0809103018F5F80932C
:107B30000301853079F6E0910401F0910501099582
:107B40000E94763C803351F60E94F33CC3CF0E94E2
:107B5000763C803249F78091C00085FFFCCFF092DF
:107B6000C6008091C00085FFFCCF9092C600809136
:107B7000C00085FFFCCF8092C6008091C00085FFC9
:107B8000FCCF7092C6008091C00085FFFCCF609250
:107B9000C6008091C00085FFFCCF5092C600809146
:107BA000C00085FFFCCF4092C6008091C00085FFD9
:107BB000FCCF3092C6008091C00085FFFCCFB09210
:107BC000C60088CF0E94763C863808F4BDCF0E945C
:107BD000763C0E94F33C7ECF0E94763C803809F4CC
:107BE0009CC0813809F40BC1823809F43CC1883942
:107BF00009F48FC080E00E94C73C6CCF84E10E94F2
:107C0000BD3C0E94F33C66CF85E00E94BD3C0E94D3
:107C1000F33C60CF0E94763C809306010E94763C44
:107C2000809307010E94F33C55CF0E94763C80333D
:107C300009F41DC183E00E94BD3C80E00E94C73C66
:107C400049CF0E94763C809309020E94763C809343
:107C5000080280910C028E7F80930C020E94763C79
:107C6000853409F415C18091080290910902892B8D
:107C700089F000E010E00E94763CF801E85FFE4FDA
:107C800080830F5F1F4F80910802909109020817AF
:107C9000190788F30E94763C803209F045CF809125
:107CA0000C0280FF01C16091060170910701660F0F
:107CB000771F7093070160930601A0910802B091AD
:107CC00009021097C9F0E8E0F1E09B01AD014E0F09
:107CD0005F1FF999FECF32BD21BD819180BDFA9A17
:107CE000F99A2F5F3F4FE417F50799F76A0F7B1F4B
:107CF00070930701609306018091C00085FFFCCF5F
:107D0000F092C6008091C00085FFFCCFB092C60003
:107D1000E1CE83E00E94C73CDDCE82E00E94C73CFA
:107D2000D9CE0E94763C809309020E94763C8093D3
:107D300008028091060190910701880F991F909386
:107D40000701809306010E94763C853409F4A6C0A1
:107D500080910C028E7F80930C020E94763C8032D0
:107D600009F0B8CE8091C00085FFFCCFF092C6002C
:107D7000609108027091090261157105B9F140E046
:107D800050E080910C02A82FA170B82FB27011C0E2
:107D9000BB2309F45CC0E0910601F0910701319624
:107DA000F0930701E09306014F5F5F4F46175707B7
:107DB000E8F4AA2369F3F999FECF209106013091E6
:107DC000070132BD21BDF89A90B58091C00085FFB2
:107DD000FCCF9093C6002F5F3F4F30930701209355
:107DE00006014F5F5F4F4617570718F38091C00099
:107DF00085FDE5CE8091C00085FFF8CFE0CE81E023
:107E00000E94C73C67CE0E94763C803209F08CCE3F
:107E10008091C00085FFFCCFF092C6008091C00029
:107E200085FFFCCFE092C6008091C00085FFFCCFAB
:107E3000D092C6008091C00085FFFCCFC092C600E2
:107E40008091C00085FFFCCFB092C60043CEE09188
:107E50000601F091070194918091C00085FFFCCF4D
:107E60009093C6009CCF80E10E94C73C33CE0E9415
:107E7000763C0E94763C182F0E94763C112309F430
:107E800083C0113009F484C08FE00E94C73C22CE29
:107E900080910C02816080930C02E5CE80910C02EF
:107EA000816080930C0259CF809107018823880F4D
:107EB000880B8A2180930B02809106019091070123
:107EC000880F991F90930701809306018091080203
:107ED00080FF09C080910802909109020196909359
:107EE000090280930802F894F999FECF1127E091D6
:107EF0000601F0910701C8E0D1E08091080290915D
:107F00000902103091F40091570001700130D9F34B
:107F100003E000935700E89500915700017001308D
:107F2000D9F301E100935700E89509901990009169
:107F3000570001700130D9F301E000935700E89534
:107F40001395103498F011270091570001700130FB
:107F5000D9F305E000935700E895009157000170B0
:107F60000130D9F301E100935700E895329602976A
:107F700009F0C7CF103011F00296E5CF112480919F
:107F8000C00085FFB9CEBCCE8EE10E94C73CA2CD19
:0E7F900085E90E94C73C9ECDF894FFCF80008B
:00000001FF
